:0400000007EF00F016
:0A0008005A82E9ED26F032EF24F0F1
:101000000053503A25342E316643200043543A258C
:10101000342E316643200031304D202000313053D2
:101020002020004D443A25730048522020004854A7
:101030002020004859202000483A256400696E6647
:10104000006E616E006C6C730000000E0101216F78
:10105000C8C022F1C9C023F1CAC024F1CBC025F118
:1010600025BF37EF08F035EF08F04BEF08F0010E21
:10107000216F22C126F023C127F024C128F025C109
:1010800029F06AEC26F026C022F127C023F128C0FF
:1010900024F129C025F1000E0101276F000E266FF3
:1010A00040C011F141C012F12151D8B45AEF08F0FB
:1010B0005CEF08F070EF08F02151D8A462EF08F05F
:1010C00064EF08F06AEF08F0000E076F2B0E066F52
:1010D0006EEF08F0000E076F2D0E066F06C121F1AE
:1010E00022C126F023C127F024C128F025C129F010
:1010F00024EC1FF026042710D8A481EF08F083EF1A
:1011000008F0B7EF08F001012151D8B48AEF08F0D8
:101110008CEF08F095EF08F021C177F11107D8A006
:101120001207000E276F010E266F770E2625266EFA
:10113000010E2721276E3D0E286E100E296E0DEC34
:1011400026F00101FD0E1127FF0E1223C6C083F009
:10115000C7C084F0770E0001856F010E866F11C144
:1011600087F012C188F065EC22F03FEF0DF022C14C
:1011700026F023C127F024C128F025C129F024EC52
:101180001FF026502710D8A4C8EF08F0CAEF08F0C7
:10119000EAEF08F001012151D8B4D1EF08F0D3EF04
:1011A00008F0DCEF08F021C177F11107D8A0120791
:1011B000000E276F010E266F770E2625266E010E74
:1011C0002721276E410E286E100E296E0DEC26F099
:1011D000A1EF08F0000E0101286F000E296F800EAC
:1011E0002A6F3F0E2B6F000E106F000E0F6F22C183
:1011F00026F023C127F024C128F025C129F0000ED4
:101200002A6E000E2B6E000E2C6E000E2D6EBCECA6
:1012100022F0D8B00EEF09F010EF09F0F2EF09F06C
:101220001DEF09F013C128F114C129F115C12AF1EC
:1012300016C12BF101010F4B102B28C180F029C1E1
:1012400081F02AC182F02BC183F0000E0001846F6F
:10125000000E856F200E866F410E876FA1EC0FF098
:1012600080C013F181C014F182C015F183C016F162
:1012700001011351225D266E14512359276E155119
:101280002459286E16512559296EA1EC24F029BE47
:1012900055EF09F029502810271009E1020E265CAD
:1012A000D8A055EF09F057EF09F012EF09F013C17C
:1012B00099F014C19AF015C19BF016C19CF022C19F
:1012C0009DF023C19EF024C19FF025C1A0F01FEC2A
:1012D0001EF00001D8A06FEF09F071EF09F012EFD6
:1012E00009F001012851225D266E29512359276EEC
:1012F0002A512459286E2B512559296EA1EC24F02E
:1013000029BE90EF09F029502810271007E1020E9E
:10131000265CD8B08EEF09F090EF09F0D8EF09F015
:1013200028C122F129C123F12AC124F12BC125F1C1
:10133000F2EF09F028C199F029C19AF02AC19BF077
:101340002BC19CF0000E9D6F000E9E6F200E9F6FB4
:10135000410EA06FA7EC15F099C028F19AC029F1B1
:101360009BC02AF19CC02BF101010F07D8A01007E8
:101370002851225D266E29512359276E2A5124595E
:10138000286E2B512559296EA1EC24F029BED6EFE9
:1013900009F029502810271007E1020E265CD8B06A
:1013A000D4EF09F0D6EF09F0D8EF09F090EF09F08B
:1013B00022C199F023C19AF024C19BF025C19CF071
:1013C00028C19DF029C19EF02AC19FF02BC1A0F039
:1013D0001FEC1EF00001D8A0F0EF09F0F2EF09F0C9
:1013E0009AEF09F0CCC009F109C10AF143BEFBEF45
:1013F00009F0FDEF09F003EF0AF042C002F143C02B
:1014000003F108EF0AF0000E0101036F060E026FF0
:1014100002C10DF103C10EF101010D4B0E2B660E41
:101420000A19D8A416EF0AF018EF0AF038EF0AF0FC
:1014300010BF1FEF0AF01DEF0AF02BEF0AF0000EAD
:10144000286F000E296F800E2A6F3F0E2B6F000E43
:10145000106F000E0F6F670E0919D8B432EF0AF043
:1014600034EF0AF038EF0AF00F510D2710510E2318
:10147000000E186F000E176F22C119F123C11AF167
:1014800024C11BF125C11CF128C113F129C114F19C
:101490002AC115F12BC116F1CAEF0AF019C199F052
:1014A0001AC19AF01BC19BF01CC19CF028C19DF091
:1014B00029C19EF02AC19FF02BC1A0F0A7EC15F026
:1014C00099C0B2F09AC0B3F09BC0B4F09CC0B5F024
:1014D00042EC19F0B2C01DF1B3C01EF1B4C01FF14F
:1014E000B5C020F11DC126F01EC127F01FC128F094
:1014F00020C129F09CEC1DF026C00BF127C00CF197
:1015000019C199F01AC19AF01BC19BF01CC19CF043
:101510001DC184F01EC185F01FC186F020C187F077
:1015200028C180F029C181F02AC182F02BC183F04B
:10153000A1EC0FF080C09DF081C09EF082C09FF0B2
:1015400083C0A0F0A3EC25F099C019F19AC01AF15C
:101550009BC01BF19CC01CF128C199F029C19AF0D5
:101560002AC19BF02BC19CF0000E00019D6F000E64
:101570009E6F200E9F6F410EA06FA7EC15F099C0D3
:1015800028F19AC029F19BC02AF19CC02BF10101DE
:10159000174B182B0D51175D1851800A0001CD6FA4
:1015A00001010E51800A0001CD59D8A0DAEF0AF0EE
:1015B000DCEF0AF04EEF0AF028C180F029C181F07B
:1015C0002AC182F02BC183F0000E846F000E856F5C
:1015D000A00E866F400E876FA1EC0FF080C01DF14A
:1015E00081C01EF182C01FF183C020F119C199F0A2
:1015F0001AC19AF01BC19BF01CC19CF01DC19DF04B
:101600001EC19EF01FC19FF020C1A0F01FEC1EF074
:101610000001D8B00EEF0BF010EF0BF01BEF0BF04A
:10162000000E01011D6F000E1E6F000E1F6F000ED9
:10163000206F44EF0BF019C126F01AC127F01BC12F
:1016400028F01CC129F01DC12AF01EC12BF01FC1BA
:101650002CF020C12DF0BCEC22F0D8A032EF0BF022
:1016600034EF0BF044EF0BF001010BB13AEF0BF04C
:101670003CEF0BF044EF0BF0000E1D6F000E1E6FE1
:10168000000E1F6F000E206F22C126F023C127F02D
:1016900024C128F025C129F01DC12AF01EC12BF05C
:1016A0001FC12CF020C12DF040EC0DF026C019F127
:1016B00027C01AF128C01BF129C01CF119C199F0EB
:1016C0001AC19AF01BC19BF01CC19CF0000E0001D6
:1016D000846F000E856F200E866F410E876F13C1D9
:1016E00080F014C181F015C182F016C183F0A1EC25
:1016F0000FF080C09DF081C09EF082C09FF083C03B
:10170000A0F01FEC1EF00001D8A089EF0BF08BEFCA
:101710000BF0B5EF0BF001010F4B102B13C180F054
:1017200014C181F015C182F016C183F0000E0001D2
:10173000846F000E856F200E866F410E876FA1ECBF
:101740000FF080C013F181C014F182C015F183C085
:1017500016F1660E01010A19D8A4B1EF0BF0B3EF30
:101760000BF0B5EF0BF00D4B0E2B13C128F114C18C
:1017700029F115C12AF116C12BF10FC100F110C1D9
:1017800001F1000E0101086F000E056F000E046FDD
:10179000000E186F000E176FB4EF0CF019C199F01E
:1017A0001AC19AF01BC19BF01CC19CF028C19DF08E
:1017B00029C19EF02AC19FF02BC1A0F0A7EC15F023
:1017C00099C0B2F09AC0B3F09BC0B4F09CC0B5F021
:1017D00042EC19F0B2C01DF1B3C01EF1B4C01FF14C
:1017E000B5C020F11DC126F01EC127F01FC128F091
:1017F00020C129F09CEC1DF027BE0AEF0CF0275009
:1018000007E10A0E265CD8B008EF0CF00AEF0CF0E6
:101810001AEF0CF01DC126F01EC127F01FC128F0E1
:1018200020C129F09CEC1DF026C00BF127C00CF163
:101830001FEF0CF0000E01010C6F090E0B6F010180
:101840000851D8A426EF0CF028EF0CF050EF0CF064
:1018500001BF2FEF0CF02DEF0CF050EF0CF0770ED6
:101860002625D96E010E2721DA6E2E0EDF6E264B4D
:10187000272B1107D8A01207010E086F50EF0CF0AC
:10188000770E2625D96E010E2721DA6E300EDF6E17
:10189000264B272B1107D8A012070407D8A005074D
:1018A00004510511D8A457EF0CF059EF0CF040EF9C
:1018B0000CF0770E2625D96E010E2721DA6E0B511A
:1018C000300FDF6E264B272B1107D8A0120719C146
:1018D00099F01AC19AF01BC19BF01CC19CF01DC16C
:1018E00084F01EC185F01FC186F020C187F028C199
:1018F00080F029C181F02AC182F02BC183F0A1ECD4
:101900000FF080C09DF081C09EF082C09FF083C028
:10191000A0F0A3EC25F099C019F19AC01AF19BC070
:101920001BF19CC01CF128C199F029C19AF02AC171
:101930009BF02BC19CF0000E00019D6F000E9E6F6E
:10194000200E9F6F410EA06FA7EC15F099C028F1F3
:101950009AC029F19BC02AF19CC02BF1010100071C
:10196000D8A00107174B182B0D51175D1851800A8D
:101970000001CD6F01010E51800A0001CD59D8B090
:10198000C4EF0CF0C6EF0CF0D5EF0CF0010127BF4F
:10199000D3EF0CF0275109E14B0E265DD8A0D3EF11
:1019A0000CF0D5EF0CF0CEEF0BF0000E0101186F2C
:1019B0004F0E176F770E1725D96E010E1821DA6EAC
:1019C000DF6A770E0001CD6F010ECE6F0101265147
:1019D0000001CD5F010127510001CE5B01011751CC
:1019E0000001CD25266E010118510001CE21276E80
:1019F000770E286E010E296E26C12AF027C12BF022
:101A00007BEC25F001012651175D266F27511859EF
:101A1000276F2151D8A40FEF0DF012EF0DF0010E3A
:101A200013EF0DF0000E176F186B2151D8B41BEF98
:101A30000DF01DEF0DF028EF0DF02607D8A02707B9
:101A4000770E2625D96E010E2721DA6E21C1DFFF20
:101A50001751115F1851125BC6C083F0C7C084F0E4
:101A6000770E26250001856F010E01012721000157
:101A7000866F11C187F012C188F065EC22F0120068
:101A80002950800B0001806F29502924826F28AED5
:101A90004CEF0DF04EEF0DF04FEF0DF082818251C3
:101AA000D8B455EF0DF057EF0DF06CEF0DF0822923
:101AB000D8A45DEF0DF05FEF0DF067EF0DF0000EB5
:101AC000266E000E276E000E286E000E296E288EE0
:101AD000000E296E74EF0DF0000E266E000E276EBC
:101AE000000E286E000E296E2D50800B816F8051E4
:101AF0008119D8B47EEF0DF080EF0DF081EF0DF07D
:101B0000808D2D502D24816F2CAE89EF0DF08BEF41
:101B10000DF08CEF0DF081818151D8B492EF0DF072
:101B200094EF0DF0A9EF0DF08129D8A49AEF0DF0F4
:101B30009CEF0DF0A4EF0DF0000E2A6E000E2B6E40
:101B4000000E2C6E000E2D6E2C8E000E2D6EB1EF41
:101B50000DF0000E2A6E000E2B6E000E2C6E000E85
:101B60002D6E8251815DD8B0B8EF0DF0BAEF0DF057
:101B7000E1EF0DF080ADBFEF0DF0C1EF0DF0C3EF61
:101B80000DF0800E801B82C083F081C082F083C084
:101B900081F026C083F02AC026F083C02AF027C037
:101BA00083F02BC027F083C02BF028C083F02CC01B
:101BB00028F083C02CF029C083F02DC029F083C009
:101BC0002DF0000E836F825181C02EF02F6A2E5EA1
:101BD000000E2F5A2FBEF6EF0DF02F5009E11A0E0E
:101BE0002E5CD8A0F6EF0DF0F8EF0DF02FEF0EF011
:101BF0002650271028102910D8A401EF0EF004EF6A
:101C00000EF0010E05EF0EF0000E836F000E266E33
:101C1000000E276E000E286E000E296E81C082F025
:101C200038EF0EF083A117EF0EF019EF0EF01FEF53
:101C30000EF0D89083310109836F21EF0EF0D89018
:101C4000833326A026EF0EF028EF0EF029EF0EF0DA
:101C5000838F29342932283227322632822B815130
:101C6000825DD8A036EF0EF038EF0EF012EF0EF0D6
:101C700080BD3DEF0EF03FEF0EF07FEF0EF0825192
:101C8000D8A445EF0EF047EF0EF051EF0EF0000E26
:101C9000266E000E276E000E286E000E296EA0EF35
:101CA0000FF02A5026262B5027222C5028222D5068
:101CB000292229A05EEF0EF060EF0EF00CEF0FF07E
:101CC00083A165EF0EF067EF0EF06DEF0EF0D89088
:101CD00083310109836F6FEF0EF0D890833326A014
:101CE00074EF0EF076EF0EF077EF0EF0838F29345D
:101CF0002932283227322632822B0CEF0FF02A505D
:101D0000265C2B5027582C5028582950800A2E6EBC
:101D10002D50800A2E58D8B090EF0EF092EF0EF0B2
:101D2000BDEF0EF026502A5C2E6E27502B582F6EDA
:101D300028502C58306E29502D58316EFF0E2E240D
:101D4000266EFF0E2F20276EFF0E3020286EFF0E0E
:101D50003120296E800E801B836D8351D8A4B3EF90
:101D60000EF0B5EF0EF0C5EF0EF0010E2626000EB8
:101D7000272228222922C5EF0EF02A50265E2B505A
:101D8000275A2C50285A2D50295A265027102810EF
:101D90002910D8A4CEEF0EF0D0EF0EF005EF0FF023
:101DA0008351D8A4D6EF0EF0D8EF0EF005EF0FF068
:101DB000000E266E000E276E000E286E000E296E95
:101DC000A0EF0FF0D890263627362836293683AF75
:101DD000ECEF0EF0EEEF0EF0EFEF0EF0268083A1A9
:101DE000F4EF0EF0F6EF0EF0FAEF0EF0D880833736
:101DF000FCEF0EF0D89083378251D8B402EF0FF089
:101E000004EF0FF005EF0FF0820728AE0AEF0FF096
:101E10000CEF0FF0E2EF0EF0000E816F83AF13EFC7
:101E20000FF015EF0FF02DEF0FF083C02EF07F0EA7
:101E30002E16D8B41EEF0FF020EF0FF024EF0FF0A6
:101E4000010E816F2DEF0FF026A029EF0FF02BEF81
:101E50000FF02DEF0FF020EF0FF08151D8B433EFDA
:101E60000FF035EF0FF060EF0FF0010E2626000E99
:101E700027222822292229A040EF0FF042EF0FF05D
:101E800060EF0FF026C02EF027C02FF028C030F0F2
:101E900029C031F03134313230322F322E322EC05F
:101EA00026F02FC027F030C028F031C029F0822959
:101EB000D8B45DEF0FF05FEF0FF060EF0FF0822B03
:101EC0008229D8B466EF0FF068EF0FF070EF0FF0D3
:101ED0008251D8A46EEF0FF070EF0FF082EF0FF089
:101EE000000E266E000E276E000E286E000E296E64
:101EF0008251D8A47EEF0FF080EF0FF082EF0FF049
:101F0000000E806F82A187EF0FF089EF0FF08CEF4A
:101F10000FF0288E8DEF0FF0289ED8908231296E19
:101F200080AF95EF0FF097EF0FF098EF0FF0298E3D
:101F300026C026F027C027F028C028F029C029F0A5
:101F4000120000018351800B8C6F83518325926FA7
:101F500082AFADEF0FF0AFEF0FF0B0EF0FF0928167
:101F60009251D8B4B6EF0FF0B8EF0FF0CBEF0FF0FF
:101F70009229D8A4BEEF0FF0C0EF0FF0C8EF0FF01A
:101F8000000E806F000E816F000E826F000E836F57
:101F9000828FD3EF0FF0000E806F000E816F000E66
:101FA000826F000E836F8751800B8C1B87518725B2
:101FB0008D6F86AFDEEF0FF0E0EF0FF0E1EF0FF087
:101FC0008D818D51D8B4E7EF0FF0E9EF0FF0FCEF02
:101FD0000FF08D29D8A4EFEF0FF0F1EF0FF0F9EF2C
:101FE0000FF0000E846F000E856F000E866F000EDE
:101FF000876F868F04EF10F0000E846F000E856FE0
:10200000000E866F000E876F8D51D8B40AEF10F066
:102010000CEF10F014EF10F09251D8A412EF10F062
:1020200014EF10F01EEF10F0000E806F000E816FA5
:10203000000E826F000E836FB6EF11F086518003A1
:10204000F3CF97F0F4CF98F097518E6F8F6B906B22
:10205000916B9851936F946B956B966B855181033F
:10206000F3CF97F0F4CF98F097518E27000E8F237F
:102070009023912398519327000E94239523962320
:1020800084518203F3CF97F0F4CF98F097518E27C5
:10209000000E8F239023912398519327000E9423B1
:1020A0009523962390C091F08FC090F08EC08FF052
:1020B0008E6B84518103F3CF97F0F4CF98F0975152
:1020C0008E2798518F23000E9023000E9123855167
:1020D0008003F3CF97F0F4CF98F097518E27985163
:1020E0008F23000E9023000E912390C091F08FC09B
:1020F00090F08EC08FF08E6B84518003F3CF97F0F9
:10210000F4CF98F097518E2798518F23000E90238B
:10211000000E912386518103F3CF97F0F4CF98F00E
:102120009751932798519423000E9523000E9623E0
:1021300085518203F3CF97F0F4CF98F0975193270E
:1021400098519423000E9523000E96238651820306
:10215000F3CF97F0F4CF98F09751886F9851896F2B
:102160008A6B8B6B8AC08BF089C08AF088C089F03B
:10217000886B88519327895194238A5195238B51D9
:1021800096238EC088F08FC089F090C08AF091C0ED
:102190008BF0190ED1EF10F0D8908B338A3389333E
:1021A0008833E82ECCEF10F088519327895194237F
:1021B0008A5195238B51962390C091F08FC090F057
:1021C0008EC08FF08E6B8D5192C088F0896B8827FE
:1021D000000E8923820E8825976FFF0E8921986F44
:1021E00007EF11F0D890933794379537963791AF22
:1021F000FCEF10F0FEEF10F0FFEF10F09381D8909D
:102200008E378F37903791379707D8A0980795AFBB
:102210000CEF11F00EEF11F0F2EF10F0000E8D6FD9
:1022200091AF15EF11F017EF11F03BEF11F0FF0E2A
:102230008E15886FFF0E8F15896FFF0E90158A6FB0
:102240007F0E91158B6F885189118A118B11D8B42B
:102250002CEF11F02EEF11F032EF11F0010E8D6F17
:102260003BEF11F093A137EF11F039EF11F03BEF95
:1022700011F02EEF11F08D51D8B441EF11F043EF72
:1022800011F067EF11F0010E9327000E94239523B0
:10229000962396A14EEF11F050EF11F067EF11F079
:1022A00093C088F094C089F095C08AF096C08BF0F6
:1022B0008B358B338A338933883388C093F089C058
:1022C00094F08AC095F08BC096F0974B982B98BFEE
:1022D00072EF11F0985108E19729D8A072EF11F030
:1022E00074EF11F07EEF11F0000E936F000E946FFB
:1022F000800E956F7F0E966FACEF11F098BF8BEF4D
:1023000011F0985106E19705D8B089EF11F08BEFE5
:1023100011F097EF11F0000E936F000E946F000E06
:10232000956F000E966F000E8C6FACEF11F097C09A
:1023300092F0FF0E9317FF0E94177F0E9517000E65
:10234000961792A1A6EF11F0A8EF11F0A9EF11F0E6
:10235000958FD8909231966F8C51961393C080F0E0
:1023600094C081F095C082F096C083F01200D1C075
:10237000D9FFD2C0DAFFDECFF6FFDDCFF7FF0800CE
:10238000F550250AD8A4C7EF11F0C9EF11F0B1EF4D
:1023900013F0D1C0D9FFD2C0DAFFDE2A000EDD2251
:1023A000000E416E000E406E40C054F0426843681B
:1023B000D1C02CF0D2C02DF0D3C02EF0D4C02FF05D
:1023C00085EC20F02CC040F02DC041F041BEEDEF77
:1023D00011F0EBEF11F0F2EF11F05480406C411E60
:1023E000D8B0412AD1C0D9FFD2C0DAFFDECFF6FF84
:1023F000DDCFF7FF0800F5502E0AD8A402EF12F047
:1024000004EF12F019EF12F0D1C0D9FFD2C0DAFFF9
:10241000DE2A000EDD22D1C02CF0D2C02DF0D3C0B8
:102420002EF0D4C02FF085EC20F02CC042F02DC04F
:1024300043F0D1C0D9FFD2C0DAFFDECFDEF0DDCF6E
:10244000DFF0DEC0F6FFDFC0F7FF0800F550640ADA
:10245000D8B42DEF12F02FEF12F03DEF12F0DEC0E6
:10246000F6FFDFC0F7FF0800F550690AD8A43BEF7C
:1024700012F03DEF12F06CEF12F0D3C0D9FFD4C0D0
:10248000DAFFDFCFD5F0020EDE26DFCFD6F0000E6A
:10249000DD22D5C0D9FFD6C0DAFFDECFD9F0DDCF3F
:1024A000DAF0010E0001DE25D56F000EDF21D66FB8
:1024B000D1C0D9FFD2C0DAFFD5C0DEFFD6C0DDFF64
:1024C000CFC08DF0D0C08EF0D9C08FF0DAC090F0C0
:1024D000CFEC1CF0C5EF13F0D1C0D9FFD2C0DAFFAA
:1024E000DECFF6FFDDCFF7FF0800F550730AD8B452
:1024F0007CEF12F07EEF12F099EF12F0D1C0D9FF0D
:10250000D2C0DAFFDECF26F0DDCF27F0450E286EF1
:10251000100E296E000E2B6E030E2A6E16EC20F0A4
:1025200026502710D8A497EF12F099EF12F0DBEFA6
:1025300012F0D1C0D9FFD2C0DAFFDECFF6FFDDCF77
:10254000F7FF0800F550730AD8B4A9EF12F0ABEF0B
:1025500012F0B2EF12F0000E0001D86F030ED76F29
:10256000B7EF12F0000E0001D86F010ED76FD1C087
:10257000D9FFD2C0DAFFD751DE26D851DD22CFC035
:102580002FF0D0C030F0D3C0D9FFD4C0DAFFDFCFF6
:10259000D5F0020EDE26DFCFD6F0000EDD22D5C04C
:1025A000D9FFD6C0DAFFDECF31F0DDCF32F001EC5B
:1025B0001CF0C5EF13F0D1C0D9FFD2C0DAFFDECFD7
:1025C000DEF0DDCFDFF0DEC0F6FFDFC0F7FF080092
:1025D000F5CFDDF0F8EF12F0DE4BDF2B12EF13F04A
:1025E0006C0EDD6F12EF13F0000EDD6F12EF13F0C3
:1025F0000001DD51D56FD66BD651000AD8B403EF78
:1026000013F0F4EF12F0D5514C0AD8B4ECEF12F0FD
:102610002A0AD8B4F0EF12F00A0AD8B4ECEF12F09C
:10262000F4EF12F0DEC0F6FFDFC0F7FF0800F55050
:10263000660AD8A41EEF13F020EF13F0A8EF13F0F2
:1026400056EF13F0D3C0D9FFD4C0DAFFDFCFD5F0F7
:10265000040EDE26DFCFD6F0000EDD22D5C0D9FF76
:10266000D6C0DAFFDECFD9F0DECFDAF0DECFDBF096
:10267000DECFDCF06BEF13F0D3C0D9FFD4C0DAFFAC
:10268000DFCFD5F0040EDE26DFCFD6F0000EDD2240
:10269000D5C0D9FFD6C0DAFFDECFD9F0DECFDAF071
:1026A000DECFDBF0DECFDCF06BEF13F0DD51D56F6A
:1026B000D66BD651000AD8B460EF13F06BEF13F06D
:1026C000D5514C0AD8B43CEF13F0200AD8B422EF0D
:1026D00013F06BEF13F0010EDE25D56F000EDF2136
:1026E000D66FD1C0D9FFD2C0DAFFD5C0DEFFD6C0C9
:1026F000DDFF92EF13F0CFC0C6F0D0C0C7F0D9C055
:10270000C8F0DAC0C9F0DBC0CAF0DCC0CBF0DEC074
:10271000F6FFDFC0F7FF0800F5CFCCF025EC08F09E
:10272000C5EF13F0DEC0F6FFDFC0F7FF0800F5507D
:10273000D56FD66BD651000AD8B4A1EF13F0A8EF2D
:1027400013F0D551660AD8B47BEF13F0A8EF13F05D
:10275000D1C0D9FFD2C0DAFFDE2A000EDD22C5EFDC
:1027600013F0D1C0D9FFD2C0DAFFDECFF6FFDDCF44
:10277000F7FF0800F550266E276ACFC028F0D0C0BA
:1027800029F0EAEC20F0A8EF13F0120014EC27F087
:1027900037EC27F06BEC24F044EC27F0D1EC26F07A
:1027A0000400000E66EC23F0B2C06EF1B3C06FF10E
:1027B000B4C070F1B5C071F1020E66EC23F0B2C086
:1027C000C7F1B3C0C8F1B4C0C9F1B5C0CAF1C7C13F
:1027D00080F0C8C181F0C9C182F0CAC183F0000E87
:1027E0000001846F000E856F960E866F430E876F13
:1027F000A1EC0FF080C06AF181C06BF182C06CF176
:1028000083C06DF16AC199F06BC19AF06CC19BF005
:102810006DC19CF0000E00019D6F000E9E6FA00E1A
:102820009F6F400EA06FA7EC15F099C066F19AC09B
:1028300067F19BC068F19CC069F1030E306E010E18
:10284000F3EC23F03A0E0001E86F010EE96F010E80
:10285000EA6F100EEB6F66C1ECF067C1EDF068C176
:10286000EEF069C1EFF0D4EC24F03A0E0001846F71
:10287000010E856F86EC26F0020E306E010EF3EC31
:1028800023F03A0E0001E86F010EE96F0C0EEA6FBB
:10289000100EEB6F6AC1ECF06BC1EDF06CC1EEF0A5
:1028A0006DC1EFF0D4EC24F03A0E0001846F010EFC
:1028B000856F86EC26F081B660EF14F062EF14F0BD
:1028C000A9EF14F0060E01017619D8A46AEF14F0EE
:1028D0006CEF14F0A9EF14F038C026F039C027F0DF
:1028E0003AC028F03BC029F0000E2A6E000E2B6E75
:1028F000200E2C6E410E2D6EBCEC22F0D8A083EF82
:1029000014F085EF14F08FEF14F0000E386E000E07
:10291000396E200E3A6E410E3B6EA9EF14F038C0AE
:1029200026F039C027F03AC028F03BC029F0000E4D
:102930002A6E000E2B6E800E2C6E3F0E2D6E40EC1C
:102940000DF026C038F027C039F028C03AF029C071
:102950003BF081B8AEEF14F0B0EF14F0F8EF14F0E4
:10296000060E01017619D8A4B8EF14F0BAEF14F0EE
:10297000F8EF14F038C026F039C027F03AC028F03C
:102980003BC029F0000E2A6E000E2B6E000E2C6E3E
:10299000000E2D6EBCEC22F0D8A0D1EF14F0D3EFD6
:1029A00014F0DDEF14F0000E386E000E396E000EDC
:1029B0003A6E000E3B6EF8EF14F038C099F039C053
:1029C0009AF03AC09BF03BC09CF0000E00019D6F56
:1029D000000E9E6F800E9F6F3F0EA06FA3EC25F040
:1029E00099C038F09AC039F09BC03AF09CC03BF0D7
:1029F000040E306E010EF3EC23F001017651D8B4D1
:102A000004EF15F006EF15F06AEF15F07605D8B46F
:102A10000CEF15F00EEF15F060EF15F0020E7619C1
:102A2000D8B415EF15F017EF15F056EF15F0030EAB
:102A30007619D8B41EEF15F020EF15F04CEF15F015
:102A4000040E7619D8B427EF15F029EF15F042EFF0
:102A500015F0050E7619D8B430EF15F032EF15F0F9
:102A600038EF15F02E0E646F100E656F3CEF15F009
:102A7000330E646F100E656F64C162F165C163F15E
:102A800046EF15F0290E626F100E636F62C160F1A0
:102A900063C161F150EF15F0170E606F100E616F9A
:102AA00060C15EF161C15FF15AEF15F0190E5E6F02
:102AB000100E5F6F5EC15CF15FC15DF164EF15F0F8
:102AC0001D0E5C6F100E5D6F5CC15AF15DC15BF154
:102AD0006EEF15F01F0E5A6F100E5B6F3A0E00016D
:102AE000E86F010EE96F230EEA6F100EEB6F5AC10B
:102AF000ECF05BC1EDF0D4EC24F03A0E0001846FF1
:102B0000010E856F86EC26F0040E306E0D0EF3EC90
:102B100023F03A0E0001E86F010EE96F380EEA6FFC
:102B2000100EEB6F38C0ECF039C0EDF03AC0EEF0AB
:102B30003BC0EFF0D4EC24F03A0E0001846F010E9C
:102B4000856F86EC26F0D0EF13F007EF00F0000160
:102B50009C51800BA96F9C519C25B06F9BAFB3EF2C
:102B600015F0B5EF15F0B6EF15F0B081B051D8B44F
:102B7000BCEF15F0BEEF15F0D3EF15F0B029D8A4D7
:102B8000C4EF15F0C6EF15F0CEEF15F0000E996FFB
:102B9000000E9A6F000E9B6F000E9C6F9B8F000EB5
:102BA0009C6FDBEF15F0000E996F000E9A6F000E10
:102BB0009B6F000E9C6FA051800BA91BA051A025FC
:102BC000B16F9FAFE6EF15F0E8EF15F0E9EF15F004
:102BD000B181B151D8B4EFEF15F0F1EF15F006EF78
:102BE00016F0B129D8A4F7EF15F0F9EF15F001EFC1
:102BF00016F0000E9D6F000E9E6F000E9F6F000E70
:102C0000A06F9F8F000EA06F0EEF16F0000E9D6F4D
:102C1000000E9E6F000E9F6F000EA06F9D519E11C3
:102C20009F11A011D8A417EF16F019EF16F031EF8D
:102C300016F0000E996F000E9A6F000E9B6F000E3B
:102C40009C6F800E9B137F0E9C13A9519C1399C0FF
:102C500099F09AC09AF09BC09BF09CC09CF074EFD6
:102C600017F0B051D8A437EF16F039EF16F043EF54
:102C700016F0000E996F000E9A6F000E9B6F000EFB
:102C80009C6F74EF17F0B151B0C0A1F0A26BA15FBF
:102C9000000EA25B7F0EA125AA6F000EA221AB6FD2
:102CA00099C0A5F09AC0A6F09BC0A7F09CC0A8F060
:102CB000000E996F000E9A6F000E9B6F000E9C6FB6
:102CC000000EAC6F000EAD6F000EAE6F000EAF6F5A
:102CD000000EB16FA4EF16F0B151D8B472EF16F038
:102CE00074EF16F08BEF16F0D890A537A637A737FC
:102CF000A837D89099379A379B379C37AFAF83EF77
:102D000016F085EF16F086EF16F09981D890AC3763
:102D1000AD37AE37AF379D51A55D9E51A6599F5136
:102D2000A759A051A859D8A098EF16F09AEF16F01D
:102D3000A3EF16F0AF8D9D51A55F9E51A65B9F51ED
:102D4000A75BA051A85BB12B190EB165AAEF16F0D5
:102D5000ACEF16F06CEF16F0A551A611A711A81153
:102D6000D8B4B5EF16F0B7EF16F0CFEF16F0AC8190
:102D7000CFEF16F0D89099379A379B379C37AFAF83
:102D8000C4EF16F0C6EF16F0C7EF16F09981D89091
:102D9000AC37AD37AE37AF37AA07D8A0AB079BAF7C
:102DA000D4EF16F0D6EF16F0BAEF16F0000EB16FB2
:102DB000AFAFDDEF16F0DFEF16F003EF17F0FF0E09
:102DC000AC15A16FFF0EAD15A26FFF0EAE15A36F70
:102DD0007F0EAF15A46FA151A211A311A411D8B4F5
:102DE000F4EF16F0F6EF16F0FAEF16F0010EB16FF1
:102DF00003EF17F099A1FFEF16F001EF17F003EFC3
:102E000017F0F6EF16F0B151D8B409EF17F00BEF49
:102E100017F02FEF17F0010E9927000E9A239B232E
:102E20009C239CA116EF17F018EF17F02FEF17F067
:102E300099C0A1F09AC0A2F09BC0A3F09CC0A4F0DE
:102E4000A435A433A333A233A133A1C099F0A2C007
:102E50009AF0A3C09BF0A4C09CF0AA4BAB2BABBFD5
:102E60003AEF17F0AB5108E1AA29D8A03AEF17F0D2
:102E70003CEF17F047EF17F0000EAB6FAA69000E9A
:102E8000996F000E9A6F000E9B6F000E9C6FABBF88
:102E900054EF17F0AB5106E1AA05D8B052EF17F086
:102EA00054EF17F062EF17F0000EAB6F000EAA6F31
:102EB000000E996F000E9A6F000E9B6F000E9C6FB4
:102EC000000EA96FAAC0B0F0B0A169EF17F06BEFC8
:102ED00017F06EEF17F09B8F6FEF17F09B9FD89056
:102EE000B0319C6F25EF16F012000450800B116E6C
:102EF00004500424186E03AE80EF17F082EF17F031
:102F000083EF17F018801850D8B489EF17F08BEFC3
:102F100017F0A0EF17F01828D8A491EF17F093EF4F
:102F200017F09BEF17F0000E016E000E026E000E00
:102F3000036E000E046E038E000E046EA8EF17F0F1
:102F4000000E016E000E026E000E036E000E046E87
:102F50000850800B111A08500824196E07AEB3EF01
:102F600017F0B5EF17F0B6EF17F019801950D8B475
:102F7000BCEF17F0BEEF17F0D3EF17F01928D8A465
:102F8000C4EF17F0C6EF17F0CEEF17F0000E056E86
:102F9000000E066E000E076E000E086E078E000E05
:102FA000086EDBEF17F0000E056E000E066E000EC9
:102FB000076E000E086E0550061007100810D8A402
:102FC000E4EF17F0E6EF17F0FEEF17F0000E016EDA
:102FD000000E026E000E036E000E046E800E0312D1
:102FE0007F0E04121150041201C001F002C002F061
:102FF00003C003F004C004F041EF19F01850D8A446
:1030000004EF18F006EF18F010EF18F0000E016E44
:10301000000E026E000E036E000E046E41EF19F0FA
:10302000195018C009F00A6A095E000E0A5A7F0E8C
:103030000924126E000E0A20136E01C00DF002C0AA
:103040000EF003C00FF004C010F0000E016E000E71
:10305000026E000E036E000E046E000E146E000E63
:10306000156E000E166E000E176E000E196E71EFC3
:1030700018F01950D8B43FEF18F041EF18F058EF9E
:1030800018F0D8900D360E360F361036D89001361F
:1030900002360336043617AE50EF18F052EF18F030
:1030A00053EF18F00180D8901436153616361736BF
:1030B00005500D5C06500E5807500F580850105818
:1030C000D8A065EF18F067EF18F070EF18F0178CC4
:1030D00005500D5E06500E5A07500F5A0850105AF0
:1030E000192A190E196477EF18F079EF18F039EFF3
:1030F00018F00D500E100F101010D8B482EF18F009
:1031000084EF18F09CEF18F014809CEF18F0D89022
:10311000013602360336043617AE91EF18F093EFFE
:1031200018F094EF18F00180D89014361536163642
:1031300017361206D8A0130603AEA1EF18F0A3EFBE
:1031400018F087EF18F0000E196E17AEAAEF18F0FE
:10315000ACEF18F0D0EF18F0FF0E1414096EFF0E4C
:1031600015140A6EFF0E16140B6E7F0E17140C6EDC
:1031700009500A100B100C10D8B4C1EF18F0C3EFAF
:1031800018F0C7EF18F0010E196ED0EF18F001A07B
:10319000CCEF18F0CEEF18F0D0EF18F0C3EF18F026
:1031A0001950D8B4D6EF18F0D8EF18F0FCEF18F09B
:1031B000010E0126000E02220322042204A0E3EFE6
:1031C00018F0E5EF18F0FCEF18F001C009F002C0AC
:1031D0000AF003C00BF004C00CF00C340C320B32BC
:1031E0000A32093209C001F00AC002F00BC003F034
:1031F0000CC004F0124A132A13BE07EF19F0135043
:1032000008E11228D8A007EF19F009EF19F014EF20
:1032100019F0000E136E1268000E016E000E026EA1
:10322000000E036E000E046E13BE21EF19F0135052
:1032300006E11204D8B01FEF19F021EF19F02FEFBB
:1032400019F0000E136E000E126E000E016E000ECD
:10325000026E000E036E000E046E000E116E12C0A0
:1032600018F018A036EF19F038EF19F03BEF19F00D
:10327000038E3CEF19F0039ED8901830046EF2EFE5
:1032800017F01200F0C0C2F0F1C0C3F0F2C0C4F0F9
:10329000F3C0C5F0B2C0C2F0B3C0C3F0B4C0C4F054
:1032A000B5C0C5F0810E0001B66FFF0EB76FC2C08A
:1032B000B8F0C3C0B9F0C4C0BAF0C5C0BBF0180EB6
:1032C00067EF19F0D890BB33BA33B933B833E82E6F
:1032D00062EF19F0B851B625C06F000EB721C16F6B
:1032E000C1BF7CEF19F0C15109E1170EC05DD8A034
:1032F0007CEF19F07EEF19F088EF19F0B2C0B2F050
:10330000B3C0B3F0B4C0B4F0B5C0B5F04CEF1AF030
:10331000C1BF8DEF19F08FEF19F000EF1AF0C0C0A8
:10332000B6F0FF0EB76FFF0EB86F7F0EB96F000ECD
:10333000BA6FB6679EEF19F0A6EF19F0BA35BA3337
:10334000B933B833B733B62F99EF19F0B7C0BCF023
:10335000B8C0BDF0B9C0BEF0BAC0BFF00001BC51EA
:10336000C215B66FBD51C315B76FBE51C415B86F46
:10337000BF51C515B96FB651B711B811B911D8A45D
:10338000C4EF19F0C6EF19F0C8EF19F07EEF19F08D
:10339000C2C0B6F0C3C0B7F0C4C0B8F0C5C0B9F081
:1033A000200ED8EF19F0D890B933B833B733B6330D
:1033B000E82ED3EF19F0B651B711B811B911D8B43E
:1033C000E4EF19F0E6EF19F0EEEF19F0BC51C22767
:1033D000BD51C323BE51C423BF51C523BC1DB66F0D
:1033E000BD1DB76FBE1DB86FBF1DB96FB651C217F7
:1033F000B751C317B851C417B951C51744EF1AF0E4
:10340000C2C0B6F0C3C0B7F0C4C0B8F0C5C0B9F010
:10341000200E10EF1AF0D890B933B833B733B63363
:10342000E82E0BEF1AF0B651B711B811B911D8A4A4
:103430001CEF1AF01EEF1AF028EF1AF0000EC26F00
:10344000000EC36F000EC46F000EC56F44EF1AF07C
:10345000D890C235B66FC335B76FC435B86FC535B0
:10346000B96FB651B711B811B911D8B43AEF1AF013
:103470003CEF1AF044EF1AF0000EC26F000EC36F5B
:10348000800EC46FBF0EC56FC2C0B2F0C3C0B3F030
:10349000C4C0B4F0C5C0B5F012002E6E2E50D8B422
:1034A00054EF1AF056EF1AF078EF1AF029BE5DEFDC
:1034B0001AF05BEF1AF078EF1AF026C02AF027C056
:1034C0002BF028C02CF029C02DF02A1E2B1E2C1EFC
:1034D0002D1E2A2A000E2B222C222D222AC030F04B
:1034E0002BC031F02CC032F02DC033F080EF1AF039
:1034F00026C030F027C031F028C032F029C033F0A8
:103500002650271028102910D8A489EF1AF08BEF25
:103510001AF095EF1AF0000E266E000E276E000EC0
:10352000286E000E296E26EF1BF0960E2F6E9FEF71
:103530001AF02F2AD8903332323231323032000E24
:1035400030142A6E000E31142B6E000E32142C6EC5
:10355000FE0E33142D6E2A502B102C102D10D8A4D3
:10356000B4EF1AF0B6EF1AF099EF1AF0C4EF1AF0B0
:103570002F2A010E3026000E312232223322D8901B
:103580003332323231323032000E30142A6E000EB5
:1035900031142B6E000E32142C6EFF0E33142D6E70
:1035A0002A502B102C102D10D8A4D9EF1AF0DBEFD5
:1035B0001AF0B8EF1AF0E3EF1AF02F06D890303671
:1035C00031363236333632BEE8EF1AF0EAEF1AF00F
:1035D000F2EF1AF0020E2F60F0EF1AF0F2EF1AF08D
:1035E000DDEF1AF02FB0F7EF1AF0F9EF1AF0FAEF5B
:1035F0001AF0329ED8902F322FC02AF02B6A2C6AF4
:103600002D6A2AC02DF02C6A2B6A2A6A2A503012A1
:103610002B5031122C5032122D5033122E50D8B460
:1036200014EF1BF016EF1BF01EEF1BF029BE1DEF71
:103630001BF01BEF1BF01EEF1BF0338E30C026F08B
:1036400031C027F032C028F033C029F01200096ED3
:103650000950D8B42EEF1BF030EF1BF052EF1BF0E7
:1036600004BE37EF1BF035EF1BF052EF1BF001C02B
:1036700005F002C006F003C007F004C008F0051E04
:10368000061E071E081E052A000E06220722082213
:1036900005C00BF006C00CF007C00DF008C00EF01E
:1036A0005AEF1BF001C00BF002C00CF003C00DF08C
:1036B00004C00EF00150021003100410D8A463EFF0
:1036C0001BF065EF1BF06FEF1BF0000E016E000E9C
:1036D000026E000E036E000E046E00EF1CF0960EDC
:1036E0000A6E79EF1BF00A2AD8900E320D320C3296
:1036F0000B32000E0B14056E000E0C14066E000E3D
:103700000D14076EFE0E0E14086E055006100710FD
:103710000810D8A48EEF1BF090EF1BF073EF1BF096
:103720009EEF1BF00A2A010E0B26000E0C220D2222
:103730000E22D8900E320D320C320B32000E0B14CA
:10374000056E000E0C14066E000E0D14076EFF0EB3
:103750000E14086E0550061007100810D8A4B3EF19
:103760001BF0B5EF1BF092EF1BF0BDEF1BF00A064C
:10377000D8900B360C360D360E360DBEC2EF1BF050
:10378000C4EF1BF0CCEF1BF0020E0A60CAEF1BF077
:10379000CCEF1BF0B7EF1BF00AB0D1EF1BF0D3EF6B
:1037A0001BF0D4EF1BF00D9ED8900A320AC005F032
:1037B000066A076A086A05C008F0076A066A056AA9
:1037C00005500B1206500C1207500D1208500E1225
:1037D0000950D8B4EEEF1BF0F0EF1BF0F8EF1BF040
:1037E00004BEF7EF1BF0F5EF1BF0F8EF1BF00E8EA9
:1037F0000BC001F00CC002F00DC003F00EC004F0CD
:10380000120021EECBF010EE80F0060EDBCFE3FFCE
:10381000E806FCE231C08BF032C08CF000018B5125
:103820008C11D8A416EF1CF018EF1CF01CEF1CF044
:10383000800E8B6F000E8C6F8BC026F08CC027F033
:1038400053EC25F026C08FF027C090F042C08DF0D9
:1038500043C08EF000018EBF30EF1CF032EF1CF041
:1038600047EF1CF08F518D5D8E51800A336E905161
:10387000800A3358D8A03FEF1CF041EF1CF043EF13
:103880001CF047EF1CF08DC08FF08EC090F08FC001
:103890008DF090C08EF040C089F041C08AF054B0E5
:1038A00054EF1CF056EF1CF074EF1CF065EF1CF0A9
:1038B000000E276E200E266E2FC028F030C029F093
:1038C000EAEC20F000018F4B902B89518F5D9051D5
:1038D000800A336E8A51800A3358D8A072EF1CF0E8
:1038E00074EF1CF058EF1CF0000E886F000E876F0D
:1038F0009AEF1CF08BC0F6FF8CC0F7FF000EF86E3D
:103900000F0EF76403D00800F55005D0F6CFE1FFA5
:10391000F7CFE2FFE750336E3350266E276A2FC091
:1039200028F030C029F0EAEC20F000018B4B8C2B02
:10393000874B882B8D51875D8851800A336E8E515D
:10394000800A3358D8A0A7EF1CF0A9EF1CF07AEF3B
:103950001CF054A0AEEF1CF0B0EF1CF0CEEF1CF04A
:10396000BFEF1CF0000E276E200E266E2FC028F031
:1039700030C029F0EAEC20F000018F4B902B8951E8
:103980008F5D9051800A336E8A51800A3358D8A0D7
:10399000CCEF1CF0CEEF1CF0B2EF1CF012000001D7
:1039A00090BFD5EF1CF0D8EF1CF0010ED9EF1CF042
:1039B000000E976F9751D8B4E0EF1CF0E2EF1CF0C7
:1039C000E6EF1CF08F6D901FD8B0902B43BEEDEF4B
:1039D0001CF0EBEF1CF0F3EF1CF0000E946F010EE7
:1039E000936FF7EF1CF042C093F043C094F040C0D7
:1039F00095F041C096F09751D8B401EF1DF003EF58
:103A00001DF01AEF1DF09507D8A096079751D8A47E
:103A10000CEF1DF00EEF1DF014EF1DF0000E926F75
:103A20002B0E916F18EF1DF0000E926F2D0E916FFF
:103A300091C097F0000E996F4F0E986F000E010124
:103A4000C66F54EF1DF09807D8A09907770E9825F8
:103A5000D96E010E9921DA6E8FC026F090C027F042
:103A6000000E296E0A0E286E0DEC22F026C02CF0F6
:103A700027C02DF02DEC26F02C50300FDF6E00010A
:103A80009307D8A094079507D8A096078FC026F073
:103A900090C027F0000E296E0A0E286E4FEC21F020
:103AA00026C08FF027C090F0000199BF60EF1DF095
:103AB000995108E19805D8A060EF1DF062EF1DF064
:103AC00078EF1DF08F519011D8A469EF1DF06BEFC6
:103AD0001DF023EF1DF094BF78EF1DF0945106E127
:103AE0009305D8B076EF1DF078EF1DF023EF1DF0B1
:103AF0009751D8B47EEF1DF080EF1DF08BEF1DF0D5
:103B00009807D8A09907770E9825D96E010E9921AC
:103B1000DA6E97C0DFFF8DC083F08EC084F0770E21
:103B20009825856F010E9921866F95C087F096C004
:103B300088F065EC22F01200283429342F6E2F50C3
:103B4000D8A4A5EF1DF0A7EF1DF0B1EF1DF0000EFA
:103B5000266E000E276E000E286E000E296E1EEFD8
:103B60001EF026C02AF027C02BF028C02CF029C058
:103B70002DF0200EC1EF1DF0D8902D322C322B32BB
:103B80002A32E82EBCEF1DF02A502E6E288EFF0E32
:103B90002616FF0E2716FF0E2816000E2916960E63
:103BA0002F5E2FBED8EF1DF0D6EF1DF0EEEF1DF00B
:103BB0002F50800A970FD8B0E0EF1DF0E2EF1DF014
:103BC000E4EF1DF0A7EF1DF0D890293228322732FC
:103BD00026322F3EE4EF1DF006EF1EF01F0E2F647D
:103BE000F4EF1DF0F6EF1DF0FEEF1DF0A7EF1DF056
:103BF000D89026362736283629362F062F50D8A4B7
:103C000004EF1EF006EF1EF0F8EF1DF02E50D8B4B2
:103C10000CEF1EF00EEF1EF016EF1EF0291E281EF0
:103C2000271E266C000E27222822292226C026F0D5
:103C300027C027F028C028F029C029F01200000E64
:103C400000019915A16F000E9A15A26F800E9B15A9
:103C5000A36F7F0E9C15A46FA151A211A311A411F3
:103C6000D8A435EF1EF037EF1EF03FEF1EF0000E28
:103C7000996F000E9A6F000E9B6F000E9C6F000EE6
:103C80009D15A16F000E9E15A26F800E9F15A36F4C
:103C90007F0EA015A46FA151A211A311A411D8A445
:103CA00054EF1EF056EF1EF05EEF1EF0000E9D6FFB
:103CB000000E9E6F000E9F6F000EA06F9CAF63EF13
:103CC0001EF065EF1EF06EEF1EF0996D9A1FD8B0D2
:103CD0009A2B9B1FD8B09B2B800E9C57A0AF73EFE5
:103CE0001EF075EF1EF07EEF1EF09D6D9E1FD8B08A
:103CF0009E2B9F1FD8B09F2B800EA057000E991BA4
:103D0000000E9A1B000E9B1B800E9C1B000E9D1B21
:103D1000000E9E1B000E9F1B800EA01B9D51995DE7
:103D20009E519A599F519B59A0519C59D8B09BEFD5
:103D30001EF09DEF1EF0A0EF1EF0D890A1EF1EF038
:103D4000D8801200000E1A14226E000E1B14236E6F
:103D5000800E1C14246E7F0E1D14256E225023101D
:103D600024102510D8A4B7EF1EF0B9EF1EF0C1EF54
:103D70001EF0000E1A6E000E1B6E000E1C6E000E62
:103D80001D6E000E1E14226E000E1F14236E800E78
:103D90002014246E7F0E2114256E2250231024102F
:103DA0002510D8A4D6EF1EF0D8EF1EF0E0EF1EF0DD
:103DB000000E1E6E000E1F6E000E206E000E216E95
:103DC0001DAEE5EF1EF0E7EF1EF0F0EF1EF01A6CEF
:103DD0001B1ED8B01B2A1C1ED8B01C2A800E1D56D4
:103DE00021AEF5EF1EF0F7EF1EF000EF1FF01E6C96
:103DF0001F1ED8B01F2A201ED8B0202A800E2156A0
:103E0000000E1A1A000E1B1A000E1C1A800E1D1A24
:103E1000000E1E1A000E1F1A000E201A800E211A04
:103E20001E501A5C1F501B5820501C5821501D5802
:103E3000D8B01DEF1FF01FEF1FF022EF1FF0D8903A
:103E400023EF1FF0D880120034C030F035C031F0BD
:103E500036C032F037C033F026C030F027C031F022
:103E600028C032F029C033F030C02AF031C02BF026
:103E700032C02CF033C02DF0180E44EF1FF0D89054
:103E80002D322C322B322A32E82E3FEF1FF02A50EF
:103E90002E6E2F6A2E502F10D8A451EF1FF053EF23
:103EA0001FF073EF1FF0D89030342A6E31342B6E30
:103EB00032342C6E33342D6E2A502B102C102D10D2
:103EC000D8A465EF1FF067EF1FF06DEF1FF0000E35
:103ED000276E020E266EA2EF1FF0000E276E030E55
:103EE000266EA2EF1FF02E282F10D8A47AEF1FF015
:103EF0007CEF1FF09EEF1FF030C02AF031C02BF096
:103F000032C02CF033C02DF0090ED8902A362B3653
:103F10002C362D36E82E85EF1FF02A502B102C1052
:103F20002D10D8B496EF1FF099EF1FF0010E9AEF05
:103F30001FF0000E266E276AA2EF1FF0000E276EFC
:103F4000040E266E1200140E44184510D8A4ABEFD0
:103F50001FF0ADEF1FF0B3EF1FF0000E456E000E27
:103F6000446E13EF20F0000E056E000E066E200E5C
:103F7000076E410E086E38C001F039C002F03AC039
:103F800003F03BC004F075EC17F001C01AF002C05A
:103F90001BF003C01CF004C01DF044C001F045C07C
:103FA00002F0000E02BEFF0E036E046E010E27EC3F
:103FB0001BF001C01EF002C01FF003C020F004C0BF
:103FC00021F0A2EC1EF0D8A0E8EF1FF0EAEF1FF0FE
:103FD0000FEF20F038C001F039C002F03AC003F012
:103FE0003BC004F0000E056E000E066E000E076E5C
:103FF000000E086E11EC23F0D8B001EF20F003EFB3
:1040000020F00FEF20F0F086828A000E026E280E5C
:10401000016EB8EC26F0444A452A13EF20F0F096E2
:10402000829A05EF20F04AEC27F0120026C02DF00E
:1040300027C02EF028C02FF029C030F02A06D8A0C3
:104040002B062A2806E12B28D8A429EF20F02BEFF5
:1040500020F038EF20F0000E276E000E266E84EF61
:1040600020F02D4A2E2A2F4A302A2A06D8A02B06C5
:104070002DC0F6FF2EC0F7FF0800F5500009D8B498
:1040800044EF20F046EF20F072EF20F02FC0F6FF53
:1040900030C0F7FF0800F5500009D8B452EF20F007
:1040A00054EF20F072EF20F02A502B10D8B45BEFC1
:1040B00020F05DEF20F072EF20F02DC0F6FF2EC053
:1040C000F7FF0800F5CF2CF02FC0F6FF30C0F7FF48
:1040D0000800F5502C18D8B470EF20F072EF20F0E3
:1040E00031EF20F02DC0F6FF2EC0F7FF0800F5CF0E
:1040F0002CF02FC0F6FF30C0F7FF0800F5502C5C05
:10410000266E276AD8A027061200000E0001826FD3
:10411000000E816F2CC0D9FF2DC0DAFFDECFF6FF75
:10412000DDCFF7FF0800F5502A0AD8A49AEF20F057
:104130009CEF20F0D1EF20F02CC0D9FF2DC0DAFF8A
:10414000DE2A000EDD222EC0D9FF2FC0DAFFDFCF1E
:1041500030F0020EDE26DFCF31F0000EDD2230C05F
:10416000D9FF31C0DAFFDECF81F0DDCF82F0E5EF9D
:1041700020F081C026F082C027F0000E296E0A0EC2
:10418000286E01EC27F0000180512624816F000E7B
:104190002720826F2CC0D9FF2DC0DAFFDE2A000E47
:1041A000DD222CC0D9FF2DC0DAFFDECFF6FFDDCF38
:1041B000F7FF0800F550D00F806F090E8065E3EF20
:1041C00020F0E5EF20F0B9EF20F081C02CF082C0A4
:1041D0002DF0120028502910D8B4F1EF20F0F3EFA1
:1041E00020F0FCEF20F028502910D8A4FAEF20F09E
:1041F000FCEF20F001EF21F0265055EC27F04EEFB8
:1042000021F020EE0AF02850D9262950DA22DE507B
:10421000DE10D8B40EEF21F010EF21F02BEF21F0DB
:1042200020EE0AF02850D9262950DA2210EE03F0A9
:104230002850E1262950E222DE50E65CE650800A52
:104240002E6EDE50800A2E58D8B029EF21F02BEFC9
:1042500021F04EEF21F020EE03F02850D92629500E
:10426000DA22DECF2AF0DDCF2BF028C0D9FF29C01B
:10427000DAFFDECF2CF0DDCF2DF02A502C24D96EC2
:104280002B502D20DA6E26C0DFFF20EE03F02850E1
:10429000D9262950DA22DE2A000EDD221200000E75
:1042A0002B6E29BE58EF21F056EF21F05EEF21F082
:1042B000286C291ED8B0292A010E2B6E27BE65EF67
:1042C00021F063EF21F06BEF21F0266C271ED8B0B0
:1042D000272A010E2B1A000E2D6E000E2C6E285070
:1042E0002910D8B476EF21F078EF21F0A0EF21F07B
:1042F000010E2A6E80EF21F0D890283629362A2A1E
:1043000029AE85EF21F087EF21F07CEF21F0D890E6
:104310002C362D362850265C29502758D8A093EFEC
:1043200021F095EF21F09AEF21F02850265E2950D8
:10433000275A2C80D890293228322A2E87EF21F054
:104340002B50D8B4A6EF21F0A8EF21F0ACEF21F06C
:104350002C6C2D1ED8B02D2A2CC026F02DC027F095
:104360001200F29201017651D8A4B9EF21F0BBEF0F
:1043700021F0BFEF21F0010E766F0CEF22F07605F1
:10438000D8A4C5EF21F0C7EF21F0CBEF21F0020E4A
:10439000766F0CEF22F0020E7619D8A4D2EF21F03E
:1043A000D4EF21F0D8EF21F0030E766F0CEF22F05E
:1043B000030E7619D8A4DFEF21F0E1EF21F0E5EF4D
:1043C00021F0040E766F0CEF22F0040E7619D8A4BB
:1043D000ECEF21F0EEEF21F0F2EF21F0050E766F19
:1043E0000CEF22F0050E7619D8A4F9EF21F0FBEFBF
:1043F00021F0FFEF21F0060E766F0CEF22F0060E93
:104400007619D8A406EF22F008EF22F00CEF22F084
:10441000000E766F0CEF22F01200000E2B6E27BEFE
:1044200016EF22F014EF22F01CEF22F0266C271E6C
:10443000D8B0272A010E2B6E29BE23EF22F021EFE0
:1044400022F027EF22F0286C291ED8B0292A285004
:104450002910D8B42EEF22F030EF22F054EF22F0E2
:10446000010E2A6E38EF22F0D890283629362A2AF3
:1044700029AE3DEF22F03FEF22F034EF22F028503A
:10448000265C29502758D8A048EF22F04AEF22F0A6
:104490004EEF22F02850265E2950275AD890293214
:1044A00028322A2E3FEF22F02B50D8B45AEF22F0B8
:1044B0005CEF22F060EF22F0266C271ED8B0272A8E
:1044C00026C026F027C027F0120054A06AEF22F081
:1044D0006CEF22F076EF22F085C02FF086C030F02E
:1044E00083C031F084C032F0C7EC25F0000188BFF2
:1044F0007CEF22F07EEF22F084EF22F087C08BF079
:1045000088C08CF088EF22F0000E8C6F000E8B6F4D
:10451000000E8A6F000E896F9BEF22F0000E276E4F
:10452000200E266E83C028F084C029F0EAEC20F02B
:104530000001894B8A2B8B51895D8A51800A336E29
:104540008C51800A3358D8A0A8EF22F0AAEF22F0AD
:104550008EEF22F054B0AFEF22F0B1EF22F0BBEFBC
:1045600022F085C02FF086C030F083C031F084C0C7
:1045700032F0C7EC25F01200000E26142E6E000E4D
:1045800027142F6E800E2814306E7F0E2914316E82
:104590002E502F1030103110D8A4D1EF22F0D3EFCD
:1045A00022F0DBEF22F0000E266E000E276E000ECA
:1045B000286E000E296E000E2A142E6E000E2B148B
:1045C0002F6E800E2C14306E7F0E2D14316E2E50F7
:1045D0002F1030103110D8A4F0EF22F0F2EF22F0BB
:1045E000FAEF22F0000E2A6E000E2B6E000E2C6EDB
:1045F000000E2D6E2A5026180FE12B5027180CE1C3
:104600002C50281809E12D502918D8B40AEF23F0AE
:104610000CEF23F00FEF23F0D89010EF23F0D880A9
:104620001200000E0114096E000E02140A6E800EB4
:1046300003140B6E7F0E04140C6E09500A100B103D
:104640000C10D8A426EF23F028EF23F030EF23F04E
:10465000000E016E000E026E000E036E000E046E60
:10466000000E0514096E000E06140A6E800E071463
:104670000B6E7F0E08140C6E09500A100B100C10F4
:10468000D8A445EF23F047EF23F04FEF23F0000EBF
:10469000056E000E066E000E076E000E086E0550C9
:1046A00001180FE1065002180CE10750031809E148
:1046B00008500418D8B45FEF23F061EF23F064EFE3
:1046C00023F0D89065EF23F0D88012000001BA6F74
:1046D0000001BA51EBEC25F026C0BBF027C0BCF0BE
:1046E000000E0001846F000E856FA00E866F400ED5
:1046F000876FBBC026F0BCC027F0000E27BEFF0EA0
:10470000286E296E010E4DEC1AF026C080F027C0ED
:1047100081F028C082F029C083F0A1EC0FF080C0A6
:1047200099F081C09AF082C09BF083C09CF0000E8B
:1047300000019D6FC00E9E6F7F0E9F6F440EA06F95
:10474000A7EC15F099C0B6F09AC0B7F09BC0B8F0CE
:104750009CC0B9F0B6C0B2F0B7C0B3F0B8C0B4F006
:10476000B9C0B5F01200336ED8EF23F0010E2E6EF3
:10477000000E00EC25F0000E276E020E266E9FEC58
:1047800026F0F2EF23F0020E306E010EF3EC23F070
:10479000F2EF23F0100E2E6E000E00EC25F0F2EF7B
:1047A00023F033C02EF0010E00EC25F0F2EF23F0E1
:1047B00033500001826F836B8351000AD8B4E3EF5A
:1047C00023F0D1EF23F08251080AD8B4CAEF23F0C6
:1047D000020AD8B4C3EF23F0060AD8B4B6EF23F028
:1047E000D1EF23F012000001806F0BEF24F0800E58
:1047F0000001816F28EF24F0C00E0001816F28EFC7
:1048000024F0900E0001816F28EF24F0D00E0001FB
:10481000816F28EF24F03050316E326A3250000A36
:10482000D8B415EF24F028EF24F03150010AD8B4A1
:10483000F7EF23F0030AD8B4FCEF23F0010AD8B451
:1048400001EF24F0070AD8B406EF24F028EF24F093
:10485000000180058127815180092E6E000E00EC39
:1048600025F012009E0EF66E4E0EF76E000EF86EDC
:1048700001EECBF010EE07F00900F5CFEEFFE550AA
:10488000E150FAE1A50EF66E4E0EF76E000EF86ED0
:1048900000EE56F010EE04F00900F5CFEEFFE55003
:1048A000E150FAE101EE66F0650EEE6AE806FDE120
:1048B00000EEF0F0080EEE6AE806FDE100EE34F0DE
:1048C000220EEE6AE806FDE15A905A92000EF86E4A
:1048D0000001C6EF13F084948492000E276E190E27
:1048E000266E9FEC26F0010E306E030E26EC27F0AC
:1048F000000E276E060E266E9FEC26F0302A030E61
:10490000306485EF24F087EF24F075EF24F0020E79
:1049100026EC27F0000E306E560E3024D96EDA6A7F
:10492000000EDA22DF502E6E000E00EC25F0302A49
:10493000030E30649EEF24F0A0EF24F08CEF24F0FF
:10494000120029BEB0EF24F029502810271006E1EC
:104950002604D8B0AEEF24F0B0EF24F0CBEF24F073
:1049600026C02AF027C02BF028C02CF029C02DF03B
:104970002A1E2B1E2C1E2D1E2A2A000E2B222C2214
:104980002D222AC026F02BC027F02CC028F02DC0E5
:1049900029F0D3EF24F026C026F027C027F028C046
:1049A00028F029C029F01200EC0E01012C6F000E36
:1049B0002D6FE8C02EF1E9C02FF1000E326F000E0E
:1049C000316F000E396F000E386F2E0E0001E06F50
:1049D000010EE16FEAC0E2F0EBC0E3F02C0EE46FF1
:1049E000010EE56F2AEC25F0010131510001E825A7
:1049F000D96E010132510001E921DA6EDF6A12003D
:104A00002F6E2FB002D0849401D08484010E4DEC1F
:104A100026F0010E4DEC26F084922E380F0B26EC7A
:104A200027F02E500F0B26EC27F02F50D8B41BEF99
:104A300025F01DEF25F023EF25F0320E0400E82EBF
:104A4000FDD729EF25F0000E276E020E266E9FEC93
:104A500026F01200E2C0E6F0E3C0E7F03FEF25F0F9
:104A6000E0C0CFF0E1C0D0F0E60E0001D16F000E43
:104A7000D26FE4C0D3F0E5C0D4F0B7EC11F0E6C0DB
:104A8000F6FFE7C0F7FF0800F5500009D8A44BEF88
:104A900025F04DEF25F030EF25F0000E0001E16F1D
:104AA000000EE06F120026C028F027C029F05BEF4F
:104AB00025F0264A272A26C0F6FF27C0F7FF000E5A
:104AC000F86E0F0EF76403D00800F55005D0F6CF4E
:104AD000E1FFF7CFE2FFE7500009D8A472EF25F01D
:104AE00074EF25F059EF25F02850265C266E2950EA
:104AF0002758276E120028C02FF029C030F026C09A
:104B00002DF027C02EF095EF25F02FC0D9FF30C033
:104B1000DAFFDF502C6E2F4A302A2DC0D9FF2EC06D
:104B2000DAFF2CC0DFFF2D4A2E2A2A06D8A02B063A
:104B30002A2806E12B28D8A4A0EF25F0A2EF25F023
:104B400085EF25F01200000E00019D1B000E9E1B3C
:104B5000000E9F1B800EA01B99C026F09AC027F064
:104B60009BC028F09CC029F09DC02AF09EC02BF06D
:104B70009FC02CF0A0C02DF040EC0DF026C099F0A5
:104B800027C09AF028C09BF029C09CF01200000EAC
:104B90000001826F000E816FDAEF25F080C026F0F1
:104BA000276A31C028F032C029F0EAEC20F0000179
:104BB000814B822B81512F24D96E82513020DA6EA5
:104BC000DF50806F8051D8A4E8EF25F0EAEF25F0A0
:104BD000CEEF25F012002C6E2CC028F02846284677
:104BE000C2502818C30B2818C26EC282C2B2FBEF93
:104BF00025F0FDEF25F0F6EF25F0C350C4CF28F0E7
:104C0000296A28C029F0286A28102A6E29502B6E9C
:104C10002AC026F02BC027F0120028C02AF029C095
:104C20002BF026C02CF027C02DF02AC0F6FF2BC099
:104C3000F7FF2A4A2B2A2CC0D9FF2DC0DAFF2C4AB5
:104C40002D2A0800F5CFDFFFDF50D8A42AEF26F089
:104C50002CEF26F015EF26F012002DBE3AEF26F0CD
:104C60002D5006E12C04D8B038EF26F03AEF26F0AC
:104C700048EF26F02CC02EF02DC02FF02E1E2F1E38
:104C80002E4A2F2A2EC02CF02FC02DF04CEF26F0EC
:104C90002CC02CF02DC02DF01200296E000E2B6EB2
:104CA000000E2A6E57EF26F004002A4A2B2A2950BC
:104CB000266E276A2A50265C2750800A286E2B50C1
:104CC000800A2858D8B067EF26F069EF26F054EF35
:104CD00026F012002650271028102910D8B473EFA0
:104CE00026F075EF26F07DEF26F0000E261A000E56
:104CF000271A000E281A800E291A26C026F027C06F
:104D000027F028C028F029C029F0120092EF26F0E1
:104D100084C0D9FF85C0DAFFDF50B3EC23F0000177
:104D2000844B852B84C0D9FF85C0DAFFDF50D8A41F
:104D30009CEF26F09EEF26F088EF26F01200000E82
:104D4000296E000E286EACEF26F0C80E0400040099
:104D5000E82EFCD7284A292A2850265C29502758B3
:104D6000D8B0B5EF26F0B7EF26F0A5EF26F0120089
:104D7000000E046E000E036EC5EF26F0C80E040090
:104D80000400E82EFCD7034A042A0350015C0450B7
:104D90000258D8B0CEEF26F0D0EF26F0BEEF26F0C6
:104DA0001200F28EF28C000EF16E000EF06EF18C9D
:104DB000F18AF188F086F088D09EF288829AB180DC
:104DC000000ED56ED580D582D594D58EF28AD58E3B
:104DD00012000600F2A2EFEF26F0F1EF26F0F5EF59
:104DE00026F0B1EC21F0FFEF26F0A1A2FAEF26F0B9
:104DF000FCEF26F0FFEF26F0A3EC1FF0A1925A92F1
:104E0000110026502802F3CF2AF0F4CF2BF02650C1
:104E10002902F3502B2627502802F3502B262AC0B4
:104E200026F02BC027F01200000ED56EF294D5802C
:104E3000D582D5940B0ED76EDC0ED66ECD82CD9A70
:104E4000CD98F28EF28ACD80D58E12002D6E2DC0B7
:104E50002CF02C3A83502C180F0B2C18836E010E5B
:104E60004DEC26F08482040000F084921200000EC3
:104E7000C26E0C0EC16E9368800E946E9268000E26
:104E8000956E000E966E1200000EC26EC280890EE4
:104E9000C06E12000B0EB36EDC0EB26E1200286EE6
:094EA000756C6C2900280C010658
:024EAA001200F4
:020000040020DA
:08000000FFFFFFFFFFFFFFFF00
:020000040030CA
:0E000000FF011F1FFF8385FF0FC00FE00F40A1
:00000001FF
